:020000040800F2
:10000000005000202D080008D1070008D70700087D
:10001000DD070008E3070008E9070008000000000A
:10002000000000000000000000000000EF070008D2
:10003000FB0700080000000007080008130800087C
:10004000750800087508000875080008750800089C
:10005000750800087508000875080008750800088C
:10006000750800087508000875080008750800087C
:10007000750800087508000875080008750800086C
:10008000750800087508000875080008750800085C
:10009000750800087508000875080008750800084C
:1000A000750800087508000875080008750800083C
:1000B000750800087508000875080008750800082C
:1000C000750800087508000875080008750800081C
:1000D000750800087508000875080008750800080C
:1000E0007508000875080008750800080000000081
:1000F0000000000000000000000000000000000000
:0C01000000000000000000005FF808F1A3
:10010C0010B5054C237833B9044B13B10448AFF345
:10011C0000800123237010BD0C00002000000000A3
:10012C005016000808B5034B1BB103490348AFF345
:10013C00008008BD000000001000002050160008D0
:10014C0080B582B000AF78600B467B807B88092B32
:10015C0000F20E8201A252F823F000BF91010008B8
:10016C00F501000859020008BD020008210300082F
:10017C0085030008E903000851040008B5040008D1
:10018C00190500087B681B8800221946AC4800F052
:10019C0037FE7B685B8800221946A94800F030FEC8
:1001AC007B689B8800221946A54800F029FE7B68D5
:1001BC00DB8800221946A24800F022FE7B681B89CE
:1001CC00002219469E4800F01BFE7B685B890022CA
:1001DC0019469B4800F014FE7B689B890122194646
:1001EC00974800F00DFEF5E17B681B88012219464B
:1001FC00934800F005FE7B685B8800221946904806
:10020C0000F0FEFD7B689B88002219468C4800F0AC
:10021C00F7FD7B68DB8801221946894800F0F0FD68
:10022C007B681B8901221946854800F0E9FD7B6833
:10023C005B8901221946824800F0E2FD7B689B89AC
:10024C00012219467E4800F0DBFDC3E17B681B8868
:10025C00002219467A4800F0D3FD7B685B880022A7
:10026C001946774800F0CCFD7B689B880122194623
:10027C00734800F0C5FD7B68DB8800221946704886
:10028C0000F0BEFD7B681B89002219466C4800F00B
:10029C00B7FD7B685B8901221946694800F0B0FD07
:1002AC007B689B8900221946654800F0A9FD91E105
:1002BC007B681B8800221946614800F0A1FD7B6811
:1002CC005B88002219465E4800F09AFD7B689B888B
:1002DC00002219465A4800F093FD7B68DB88002207
:1002EC001946574800F08CFD7B681B890122194682
:1002FC00534800F085FD7B685B8901221946504804
:10030C0000F07EFD7B689B89002219464C4800F06A
:10031C0077FD5FE17B681B8801221946484800F095
:10032C006FFD7B685B8800221946454800F068FD2C
:10033C007B689B8800221946414800F061FD7B6870
:10034C00DB88012219463E4800F05AFD7B681B8968
:10035C00012219463A4800F053FD7B685B89002264
:10036C001946374800F04CFD7B689B8900221946E2
:10037C00334800F045FD2DE17B681B8800221946AF
:10038C002F4800F03DFD7B685B88012219462C4804
:10039C0000F036FD7B689B8800221946284800F047
:1003AC002FFD7B68DB8800221946254800F028FDCC
:1003BC007B681B8901221946214800F021FD7B68CE
:1003CC005B89002219461E4800F01AFD7B689B8948
:1003DC00002219461A4800F013FDFBE07B681B88CD
:1003EC0000221946164800F00BFD7B685B88012241
:1003FC001946134800F004FD7B689B8800221946BF
:10040C000F4800F0FDFC7B68DB88002219460C4885
:10041C0000F0F6FC7B681B8900221946084800F0A6
:10042C00EFFC7B685B8900221946054800F0E8FC6C
:10043C007B689B8900221946014800F0E1FCC9E069
:10044C00000801407B681B8800221946634800F0B5
:10045C00D7FC7B685B8800221946604800F0D0FC12
:10046C007B689B88002219465C4800F0C9FC7B68BD
:10047C00DB8801221946594800F0C2FC7B681B89B5
:10048C0001221946554800F0BBFC7B685B890122B0
:10049C001946524800F0B4FC7B689B89012219462E
:1004AC004E4800F0ADFC95E07B681B880022194695
:1004BC004A4800F0A5FC7B685B8800221946474837
:1004CC0000F09EFC7B689B8800221946434800F094
:1004DC0097FC7B68DB8800221946404800F090FCB2
:1004EC007B681B89002219463C4800F089FC7B681C
:1004FC005B8900221946394800F082FC7B689B8995
:10050C0000221946354800F07BFC63E07B681B88B1
:10051C0000221946314800F073FC7B685B8800228E
:10052C0019462E4800F06CFC7B689B88002219460B
:10053C002A4800F065FC7B68DB88002219462748B6
:10054C0000F05EFC7B681B8901221946234800F0F1
:10055C0057FC7B685B8900221946204800F050FC50
:10056C007B689B89002219461C4800F049FC31E04D
:10057C007B681B8801221946184800F041FC7B68F7
:10058C005B8801221946154800F03AFC7B689B8871
:10059C0001221946114800F033FC7B68DB880122EC
:1005AC0019460E4800F02CFC7B681B890122194669
:1005BC000A4800F025FC7B685B8901221946074834
:1005CC0000F01EFC7B689B8901221946034800F051
:1005DC0017FC00BF00BF0837BD4680BD00080140B6
:1005EC0080B485B000AFF860084611461A46034641
:1005FC007B810B463B811346FB80FB687A891A8012
:10060C00FB683A895A80FB68FA889A80FB683A8BB7
:10061C00DA80FB68BA8B1A81FB683A8C5A81FB68CA
:10062C00BA8C9A8100BF1437BD4680BC704780B528
:10063C008AB004AF00F01AF90023FB8200F06EF9C7
:10064C00386100F02AF800F063F8384680230393F1
:10065C0040230293202301931023009308230422A8
:10066C000221FFF7BDFFFB8A092B01D90023FB8276
:10067C00FA8A3B4611461846FFF762FD00F04EF928
:10068C0002463B69D31AB3F57A7FECD900F046F9F0
:10069C003861FB8A0133FB82E5E780B590B000AF8F
:1006AC0007F1180328220021184600F09FFF3B1D7C
:1006BC0000221A605A609A60DA601A610223BB61E8
:1006CC000123BB621023FB6200237B6307F1180339
:1006DC00184600F0ADFB0346002B01D000F04AF8A1
:1006EC000F237B600023BB600023FB6000233B6176
:1006FC0000237B613B1D0021184600F01BFE0346C6
:10070C00002B01D000F036F800BF4037BD4680BD4D
:10071C0080B586B000AF07F1080300221A605A605A
:10072C009A60DA60114B9B69104A43F004039361A1
:10073C000E4B9B6903F004037B607B680022FE2157
:10074C000B4800F05DFBFE23BB600123FB60002324
:10075C003B6102237B6107F108031946044800F052
:10076C00CBF900BF1837BD4680BD00BF001002405A
:10077C000008014080B400AF72B600BFFEE7000075
:10078C0080B483B000AF0E4B9B690D4A43F001035C
:10079C0093610B4B9B6903F001037B607B68084BF7
:1007AC00DB69074A43F08053D361054BDB6903F0E7
:1007BC0080533B603B6800BF0C37BD4680BC704724
:1007CC000010024080B400AFFEE780B400AFFEE73B
:1007DC0080B400AFFEE780B400AFFEE780B400AF9A
:1007EC00FEE780B400AF00BFBD4680BC704780B44C
:1007FC0000AF00BFBD4680BC704780B400AF00BFE7
:10080C00BD4680BC704780B500AF00F075F800BFE6
:10081C0080BD80B400AF00BFBD4680BC70470000F7
:10082C00FFF7F7FF0B480C490C4A002302E0D458A1
:10083C00C4500433C4188C42F9D3094A094C002320
:10084C0001E013600432A242FBD300F0D7FEFFF7A5
:10085C00EEFE7047000000200C00002094160008EB
:10086C000C0000202C000020FEE7000080B500AF3B
:10087C00084B1B68074A43F010031360032000F079
:10088C0007F90F2000F008F8FFF77AFF002318464D
:10089C0080BD00BF0020024080B582B000AF786000
:1008AC00124B1A68124B1B7819464FF47A73B3FB30
:1008BC00F1F3B2FBF3F3184600F011F90346002BE9
:1008CC0001D001230EE07B680F2B0AD80022796837
:1008DC004FF0FF3000F0E7F8064A7B681360002306
:1008EC0000E0012318460837BD4680BD00000020FB
:1008FC00080000200400002080B400AF054B1B78DA
:10090C001A46054B1B681344034A136000BFBD46CF
:10091C0080BC7047080000202800002080B400AF85
:10092C00024B1B681846BD4680BC7047280000204F
:10093C0080B485B000AF78607B6803F00703FB6080
:10094C000C4BDB68BB60BA684FF6FF031340BB600F
:10095C00FB681A02BB68134343F0BF6343F40033D4
:10096C00BB60044ABB68D36000BF1437BD4680BC73
:10097C00704700BF00ED00E080B400AF044BDB68B3
:10098C001B0A03F007031846BD4680BC704700BF26
:10099C0000ED00E080B483B000AF03463960FB711A
:1009AC0097F90730002B0ADB3B68DAB20C4997F950
:1009BC0007301201D2B20B4483F800230AE03B68E3
:1009CC00DAB20849FB7903F00F03043B1201D2B2EF
:1009DC000B441A7600BF0C37BD4680BC704700BF75
:1009EC0000E100E000ED00E080B489B000AFF860F9
:1009FC00B9607A60FB6803F00703FB61FB69C3F124
:100A0C000703042B28BF0423BB61FB690433062BAB
:100A1C0002D9FB69033B00E000237B614FF0FF32FE
:100A2C00BB6902FA03F3DA43BB681A407B699A404C
:100A3C004FF0FF317B6901FA03F3D9437B680B401C
:100A4C00134318462437BD4680BC704780B582B02E
:100A5C0000AF78607B68013BB3F1807F01D3012349
:100A6C000FE00A4A7B68013B53600F214FF0FF30C7
:100A7C00FFF790FF054B00229A60044B07221A6087
:100A8C00002318460837BD4680BD00BF10E000E0CB
:100A9C0080B582B000AF78607868FFF749FF00BF7F
:100AAC000837BD4680BD80B586B000AF0346B9603F
:100ABC007A60FB7300237B61FFF75EFF78617A68D5
:100ACC00B9687869FFF790FF024697F90F30114625
:100ADC001846FFF75FFF00BF1837BD4680BD80B5D5
:100AEC0082B000AF78607868FFF7B0FF0346184615
:100AFC000837BD4680BD000080B48BB000AF786075
:100B0C00396000237B6200233B6269E101227B6A2E
:100B1C0002FA03F3FB613B681B68FA691340BB6183
:100B2C00BA69FB699A4240F058813B685B689A4A03
:100B3C0093425ED0984A934275D8984A934258D0C3
:100B4C00964A93426FD8964A934252D0944A934213
:100B5C0069D8944A93424CD0924A934263D8924AB1
:100B6C00934246D0904A93425DD8122B2AD8122B2E
:100B7C0059D801A252F823F0FF0B0008D90B00083A
:100B8C00EB0B00082D0C0008330C0008330C00088C
:100B9C00330C0008330C0008330C0008330C00082D
:100BAC00330C0008330C0008330C0008330C00081D
:100BBC00330C0008330C0008330C0008E10B000860
:100BCC00F50B0008794A934213D02CE03B68DB68A4
:100BDC003B6229E03B68DB6804333B6224E03B6802
:100BEC00DB6808333B621FE03B68DB680C333B621D
:100BFC001AE03B689B68002B02D104233B6213E094
:100C0C003B689B68012B05D108233B627B68FA6922
:100C1C001A6109E008233B627B68FA695A6103E0B8
:100C2C0000233B6200E000BFBB69FF2B01D87B684F
:100C3C0001E07B6804337B61BB69FF2B02D87B6AC4
:100C4C009B0002E07B6A083B9B003B617B691A6856
:100C5C000F213B6901FA03F3DB431A40396A3B6904
:100C6C0001FA03F31A437B691A603B685B6803F073
:100C7C008053002B00F0B1804D4B9B694C4A43F0E4
:100C8C00010393614A4B9B6903F00103BB60BB6892
:100C9C00484A7B6A9B08023352F82330FB607B6A1C
:100CAC0003F003039B000F2202FA03F3DB43FA6801
:100CBC001340FB607B68404A934213D07B683F4AE9
:100CCC0093420DD07B683E4A934207D07B683D4AE5
:100CDC00934201D1032306E0042304E0022302E043
:100CEC00012300E000237A6A02F003029200934091
:100CFC00FA681343FB602F497B6A9B080233FA683E
:100D0C0041F823203B685B6803F48013002B06D06A
:100D1C002D4B9A682C49BB6913438B6006E02A4B18
:100D2C009A68BB69DB43284913408B603B685B685E
:100D3C0003F40013002B06D0234BDA682249BB695D
:100D4C001343CB6006E0204BDA68BB69DB431E49DA
:100D5C001340CB603B685B6803F40033002B06D078
:100D6C00194B5A681849BB6913434B6006E0164B84
:100D7C005A68BB69DB43144913404B603B685B68A2
:100D8C0003F48033002B21D00F4B1A680E49BB693A
:100D9C0013430B6021E000BF000032100000311043
:100DAC000000221000002110000012100000111091
:100DBC00001002400000014000080140000C0140FE
:100DCC000010014000140140000401400B4B1A6854
:100DDC00BB69DB43094913400B607B6A01337B62BF
:100DEC003B681A687B6A22FA03F3002B7FF48EAE01
:100DFC0000BF00BF2C37BD4680BC704700040140CB
:100E0C0080B483B000AF78600B467B8013467B7058
:100E1C007B78002B03D07A887B681A6103E07B888F
:100E2C001A047B681A6100BF0C37BD4680BC704742
:100E3C0080B586B000AF78607B68002B01D10123B0
:100E4C0072E27B681B6803F00103002B00F08780C3
:100E5C00924B5B6803F00C03042B0CD08F4B5B683C
:100E6C0003F00C03082B12D18C4B5B6803F480331A
:100E7C00B3F5803F0BD1894B1B6803F40033002B77
:100E8C006CD07B685B68002B68D101234CE27B68DB
:100E9C005B68B3F5803F06D1804B1B687F4A43F4F7
:100EAC00803313602EE07B685B68002B0CD17B4B8E
:100EBC001B687A4A23F480331360784B1B68774A9B
:100ECC0023F4802313601DE07B685B68B3F5A02FCF
:100EDC000CD1724B1B68714A43F4802313606F4B27
:100EEC001B686E4A43F4803313600BE06B4B1B683A
:100EFC006A4A23F480331360684B1B68674A23F4F7
:100F0C00802313607B685B68002B13D0FFF706FD12
:100F1C00386108E0FFF702FD02463B69D31A642BE7
:100F2C0001D9032300E25D4B1B6803F40033002B53
:100F3C00F0D014E0FFF7F2FC386108E0FFF7EEFCAC
:100F4C0002463B69D31A642B01D90323ECE1534BC2
:100F5C001B6803F40033002BF0D100E000BF7B686A
:100F6C001B6803F00203002B63D04C4B5B6803F04F
:100F7C000C03002B0BD0494B5B6803F00C03082BC4
:100F8C001CD1464B5B6803F48033002B16D1434BCA
:100F9C001B6803F00203002B05D07B681B69012B37
:100FAC0001D00123C0E13D4B1B6823F0F8027B68A4
:100FBC005B69DB00394913430B603AE07B681B69C2
:100FCC00002B20D0364B01221A60FFF7A7FC3861AA
:100FDC0008E0FFF7A3FC02463B69D31A022B01D9A8
:100FEC000323A1E12D4B1B6803F00203002BF0D06F
:100FFC002A4B1B6823F0F8027B685B69DB002749EE
:10100C0013430B6015E0264B00221A60FFF786FC99
:10101C00386108E0FFF782FC02463B69D31A022BC9
:10102C0001D9032380E11D4B1B6803F00203002B45
:10103C00F0D17B681B6803F00803002B3AD07B6867
:10104C009B69002B19D0174B01221A60FFF766FC25
:10105C00386108E0FFF762FC02463B69D31A022BA9
:10106C0001D9032360E10D4B5B6A03F00203002BF3
:10107C00F0D0012000F09CFA1CE00A4B00221A6010
:10108C00FFF74CFC38610FE0FFF748FC02463B6968
:10109C00D31A022B08D9032346E100BF00100240EB
:1010AC000000424280044242924B5B6A03F002030E
:1010BC00002BE9D17B681B6803F00403002B00F0C4
:1010CC00A6800023FB758B4BDB6903F08053002B50
:1010DC000DD1884BDB69874A43F08053D361854B34
:1010EC00DB6903F08053BB60BB680123FB75824B4B
:1010FC001B6803F48073002B18D17F4B1B687E4A4E
:10110C0043F480731360FFF709FC386108E0FFF7C4
:10111C0005FC02463B69D31A642B01D9032303E176
:10112C00754B1B6803F48073002BF0D07B68DB6875
:10113C00012B06D16F4B1B6A6E4A43F001031362FD
:10114C002DE07B68DB68002B0CD16A4B1B6A694A6B
:10115C0023F001031362674B1B6A664A23F00403F6
:10116C0013621CE07B68DB68052B0CD1614B1B6A9E
:10117C00604A43F0040313625E4B1B6A5D4A43F002
:10118C00010313620BE05B4B1B6A5A4A23F0010309
:10119C001362584B1B6A574A23F0040313627B6893
:1011AC00DB68002B15D0FFF7B9FB38610AE0FFF7BD
:1011BC00B5FB02463B69D31A41F28832934201D9FE
:1011CC000323B1E04B4B1B6A03F00203002BEED060
:1011DC0014E0FFF7A3FB38610AE0FFF79FFB024620
:1011EC003B69D31A41F28832934201D903239BE025
:1011FC00404B1B6A03F00203002BEED1FB7D012B4D
:10120C0005D13C4BDB693B4A23F08053D3617B68AF
:10121C00DB69002B00F08780364B5B6803F00C0316
:10122C00082B61D07B68DB69022B46D1334B002243
:10123C001A60FFF773FB386108E0FFF76FFB02469B
:10124C003B69D31A022B01D903236DE0294B1B6890
:10125C0003F00073002BF0D17B681B6AB3F5803F61
:10126C0008D1244B5B6823F400327B689B682149CE
:10127C0013434B601F4B5B6823F474127B68196A31
:10128C007B685B6A0B431B4913434B601B4B01226E
:10129C001A60FFF743FB386108E0FFF73FFB02469B
:1012AC003B69D31A022B01D903233DE0114B1B6878
:1012BC0003F00073002BF0D035E0104B00221A60C5
:1012CC00FFF72CFB386108E0FFF728FB02463B696F
:1012DC00D31A022B01D9032326E0064B1B6803F01B
:1012EC000073002BF0D11EE07B68DB69012B07D16A
:1012FC00012319E0001002400070004060004242DF
:10130C000B4B5B68FB60FB6803F480327B681B6AE9
:10131C009A4206D1FB6803F470127B685B6A9A42AE
:10132C0001D0012300E0002318461837BD4680BDCC
:10133C000010024080B584B000AF786039607B68E3
:10134C00002B01D10123D0E06A4B1B6803F007038B
:10135C003A689A4210D9674B1B6823F0070265491B
:10136C003B6813430B60634B1B6803F007033A683D
:10137C009A4201D00123B8E07B681B6803F002039A
:10138C00002B20D07B681B6803F00403002B05D0D6
:10139C00594B5B68584A43F4E06353607B681B68A5
:1013AC0003F00803002B05D0534B5B68524A43F4FF
:1013BC0060535360504B5B6823F0F0027B689B6872
:1013CC004D4913434B607B681B6803F00103002BF2
:1013DC0040D07B685B68012B07D1474B1B6803F43B
:1013EC000033002B15D101237FE07B685B68022B57
:1013FC0007D1414B1B6803F00073002B09D101236B
:10140C0073E03D4B1B6803F00203002B01D1012359
:10141C006BE0394B5B6823F003027B685B683649F1
:10142C0013434B60FFF77AFAF8600AE0FFF776FA9D
:10143C000246FB68D31A41F28832934201D9032346
:10144C0053E02D4B5B6803F00C027B685B689B00E0
:10145C009A42EBD1274B1B6803F007033A689A4278
:10146C0010D2244B1B6823F0070222493B6813431C
:10147C000B60204B1B6803F007033A689A4201D0BB
:10148C00012332E07B681B6803F00403002B08D0B7
:10149C00194B5B6823F4E0627B68DB6816491343E5
:1014AC004B607B681B6803F00803002B09D0124BC0
:1014BC005B6823F460527B681B69DB000E491343A5
:1014CC004B6000F021F802460B4B5B681B0903F0E4
:1014DC000F030A49CB5C22FA03F3094A1360094B48
:1014EC001B681846FFF7D8F9002318461037BD467D
:1014FC0080BD00BF002002400010024068160008AA
:10150C00000000200400002080B487B000AF00234E
:10151C00FB600023BB6000237B6100237B60002306
:10152C003B611E4B5B68FB60FB6803F00C03042BF8
:10153C0002D0082B03D027E0194B3B6127E0FB6856
:10154C009B0C03F00F03174AD35C7B60FB6803F41E
:10155C008033002B10D0114B5B685B0C03F0010344
:10156C00114AD35CBB607B680D4A03FB02F2BB687B
:10157C00B2FBF3F37B6104E07B680C4A02FB03F3E0
:10158C007B617B693B6102E0054B3B6100BF3B69C2
:10159C0018461C37BD4680BC704700BF0010024087
:1015AC0000127A00781600088816000800093D0021
:1015BC0080B485B000AF78600A4B1B680A4AA2FB66
:1015CC0003235B0A7A6802FB03F3FB6000BFFB6832
:1015DC005A1EFA60002BF9D100BF00BF1437BD466C
:1015EC0080BC704700000020D34D621003460244BB
:1015FC00934200D1704703F8011BF9E770B5002640
:10160C000C4D0D4C641BA410A64209D100F01AF825
:10161C0000260A4D0A4C641BA410A64205D170BDCD
:10162C0055F8043B98470136EEE755F8043B9847CC
:10163C000136F2E78C1600088C1600088C16000890
:10164C0090160008F8B500BFF8BC08BC9E46704761
:0C165C00F8B500BFF8BC08BC9E46704703
:10166800000000000000000001020304060708094A
:1016780002030405060708090A0B0C0D0E0F1010CB
:04168800010200005B
:04168C003101000820
:041690000D01000840
:0C1694000024F400100000000100000021
:040000050800082DBA
:00000001FF
